{
  "_format": "hh-sol-artifact-1",
  "contractName": "FeedbackContract",
  "sourceName": "contracts/Feedback.sol",
  "abi": [
    {
      "anonymous": false,
      "inputs": [
        {
          "indexed": true,
          "internalType": "address",
          "name": "from",
          "type": "address"
        },
        {
          "indexed": false,
          "internalType": "uint256",
          "name": "timestamp",
          "type": "uint256"
        },
        {
          "indexed": false,
          "internalType": "string",
          "name": "message",
          "type": "string"
        }
      ],
      "name": "NewFeedback",
      "type": "event"
    },
    {
      "inputs": [],
      "name": "getAllFeedback",
      "outputs": [
        {
          "components": [
            {
              "internalType": "address",
              "name": "user",
              "type": "address"
            },
            {
              "internalType": "string",
              "name": "feedback",
              "type": "string"
            },
            {
              "internalType": "uint256",
              "name": "timestamp",
              "type": "uint256"
            }
          ],
          "internalType": "struct FeedbackContract.Feedback[]",
          "name": "",
          "type": "tuple[]"
        }
      ],
      "stateMutability": "view",
      "type": "function"
    },
    {
      "inputs": [],
      "name": "getTotalFeedbackCount",
      "outputs": [
        {
          "internalType": "uint256",
          "name": "",
          "type": "uint256"
        }
      ],
      "stateMutability": "view",
      "type": "function"
    },
    {
      "inputs": [
        {
          "internalType": "string",
          "name": "_message",
          "type": "string"
        }
      ],
      "name": "submitFeedback",
      "outputs": [],
      "stateMutability": "nonpayable",
      "type": "function"
    }
  ],
  "bytecode": "0x608060405234801561001057600080fd5b50610af4806100206000396000f3fe608060405234801561001057600080fd5b50600436106100415760003560e01c8063d3b6866414610046578063dc8600c314610064578063e341a62314610082575b600080fd5b61004e61009e565b60405161005b9190610525565b60405180910390f35b61006c6101ef565b6040516100799190610556565b60405180910390f35b61009c600480360381019061009791906106ba565b6101f8565b005b60606001805480602002602001604051908101604052809291908181526020016000905b828210156101e657838290600052602060002090600302016040518060600160405290816000820160009054906101000a900473ffffffffffffffffffffffffffffffffffffffff1673ffffffffffffffffffffffffffffffffffffffff1673ffffffffffffffffffffffffffffffffffffffff16815260200160018201805461014b90610732565b80601f016020809104026020016040519081016040528092919081815260200182805461017790610732565b80156101c45780601f10610199576101008083540402835291602001916101c4565b820191906000526020600020905b8154815290600101906020018083116101a757829003601f168201915b50505050508152602001600282015481525050815260200190600101906100c2565b50505050905090565b60008054905090565b600160008082825461020a9190610792565b92505081905550600160405180606001604052803373ffffffffffffffffffffffffffffffffffffffff16815260200183815260200142815250908060018154018082558091505060019003906000526020600020906003020160009091909190915060008201518160000160006101000a81548173ffffffffffffffffffffffffffffffffffffffff021916908373ffffffffffffffffffffffffffffffffffffffff16021790555060208201518160010190816102c99190610972565b506040820151816002015550503373ffffffffffffffffffffffffffffffffffffffff167fdcb86d6802c0813e667057c481096d0284829acfbe1b733269ffc5ac2e4bd390428360405161031e929190610a8e565b60405180910390a250565b600081519050919050565b600082825260208201905092915050565b6000819050602082019050919050565b600073ffffffffffffffffffffffffffffffffffffffff82169050919050565b600061038082610355565b9050919050565b61039081610375565b82525050565b600081519050919050565b600082825260208201905092915050565b60005b838110156103d05780820151818401526020810190506103b5565b60008484015250505050565b6000601f19601f8301169050919050565b60006103f882610396565b61040281856103a1565b93506104128185602086016103b2565b61041b816103dc565b840191505092915050565b6000819050919050565b61043981610426565b82525050565b60006060830160008301516104576000860182610387565b506020830151848203602086015261046f82826103ed565b91505060408301516104846040860182610430565b508091505092915050565b600061049b838361043f565b905092915050565b6000602082019050919050565b60006104bb82610329565b6104c58185610334565b9350836020820285016104d785610345565b8060005b8581101561051357848403895281516104f4858261048f565b94506104ff836104a3565b925060208a019950506001810190506104db565b50829750879550505050505092915050565b6000602082019050818103600083015261053f81846104b0565b905092915050565b61055081610426565b82525050565b600060208201905061056b6000830184610547565b92915050565b6000604051905090565b600080fd5b600080fd5b600080fd5b600080fd5b7f4e487b7100000000000000000000000000000000000000000000000000000000600052604160045260246000fd5b6105c7826103dc565b810181811067ffffffffffffffff821117156105e6576105e561058f565b5b80604052505050565b60006105f9610571565b905061060582826105be565b919050565b600067ffffffffffffffff8211156106255761062461058f565b5b61062e826103dc565b9050602081019050919050565b82818337600083830152505050565b600061065d6106588461060a565b6105ef565b9050828152602081018484840111156106795761067861058a565b5b61068484828561063b565b509392505050565b600082601f8301126106a1576106a0610585565b5b81356106b184826020860161064a565b91505092915050565b6000602082840312156106d0576106cf61057b565b5b600082013567ffffffffffffffff8111156106ee576106ed610580565b5b6106fa8482850161068c565b91505092915050565b7f4e487b7100000000000000000000000000000000000000000000000000000000600052602260045260246000fd5b6000600282049050600182168061074a57607f821691505b60208210810361075d5761075c610703565b5b50919050565b7f4e487b7100000000000000000000000000000000000000000000000000000000600052601160045260246000fd5b600061079d82610426565b91506107a883610426565b92508282019050808211156107c0576107bf610763565b5b92915050565b60008190508160005260206000209050919050565b60006020601f8301049050919050565b600082821b905092915050565b6000600883026108287fffffffffffffffffffffffffffffffffffffffffffffffffffffffffffffffff826107eb565b61083286836107eb565b95508019841693508086168417925050509392505050565b6000819050919050565b600061086f61086a61086584610426565b61084a565b610426565b9050919050565b6000819050919050565b61088983610854565b61089d61089582610876565b8484546107f8565b825550505050565b600090565b6108b26108a5565b6108bd818484610880565b505050565b5b818110156108e1576108d66000826108aa565b6001810190506108c3565b5050565b601f821115610926576108f7816107c6565b610900846107db565b8101602085101561090f578190505b61092361091b856107db565b8301826108c2565b50505b505050565b600082821c905092915050565b60006109496000198460080261092b565b1980831691505092915050565b60006109628383610938565b9150826002028217905092915050565b61097b82610396565b67ffffffffffffffff8111156109945761099361058f565b5b61099e8254610732565b6109a98282856108e5565b600060209050601f8311600181146109dc57600084156109ca578287015190505b6109d48582610956565b865550610a3c565b601f1984166109ea866107c6565b60005b82811015610a12578489015182556001820191506020850194506020810190506109ed565b86831015610a2f5784890151610a2b601f891682610938565b8355505b6001600288020188555050505b505050505050565b600082825260208201905092915050565b6000610a6082610396565b610a6a8185610a44565b9350610a7a8185602086016103b2565b610a83816103dc565b840191505092915050565b6000604082019050610aa36000830185610547565b8181036020830152610ab58184610a55565b9050939250505056fea264697066735822122061f8460ec313c015d6e29c1fbd9cc94b997c104460320e1c0da599a0a51c1ac364736f6c63430008110033",
  "linkReferences": {},
  "deployedLinkReferences": {}
}